{
  "contractName": "CRVoting",
  "abi": [
    {
      "inputs": [
        {
          "internalType": "string",
          "name": "_electionName",
          "type": "string"
        }
      ],
      "stateMutability": "nonpayable",
      "type": "constructor"
    },
    {
      "anonymous": false,
      "inputs": [
        {
          "indexed": false,
          "internalType": "string[]",
          "name": "winnerNames",
          "type": "string[]"
        },
        {
          "indexed": false,
          "internalType": "uint256",
          "name": "winnerVotes",
          "type": "uint256"
        }
      ],
      "name": "ElectionEnded",
      "type": "event"
    },
    {
      "anonymous": false,
      "inputs": [
        {
          "indexed": false,
          "internalType": "bool",
          "name": "candidatesCleared",
          "type": "bool"
        }
      ],
      "name": "ElectionReset",
      "type": "event"
    },
    {
      "anonymous": false,
      "inputs": [],
      "name": "ElectionStarted",
      "type": "event"
    },
    {
      "anonymous": false,
      "inputs": [
        {
          "indexed": false,
          "internalType": "address",
          "name": "voter",
          "type": "address"
        },
        {
          "indexed": false,
          "internalType": "uint256",
          "name": "candidateIndex",
          "type": "uint256"
        }
      ],
      "name": "VoteCasted",
      "type": "event"
    },
    {
      "anonymous": false,
      "inputs": [
        {
          "indexed": false,
          "internalType": "address",
          "name": "voter",
          "type": "address"
        },
        {
          "indexed": false,
          "internalType": "bool",
          "name": "status",
          "type": "bool"
        }
      ],
      "name": "VoterAuthorized",
      "type": "event"
    },
    {
      "anonymous": false,
      "inputs": [
        {
          "indexed": false,
          "internalType": "address",
          "name": "voter",
          "type": "address"
        },
        {
          "indexed": false,
          "internalType": "string",
          "name": "name",
          "type": "string"
        },
        {
          "indexed": false,
          "internalType": "string",
          "name": "enrollment",
          "type": "string"
        }
      ],
      "name": "VoterRegistered",
      "type": "event"
    },
    {
      "inputs": [],
      "name": "admin",
      "outputs": [
        {
          "internalType": "address",
          "name": "",
          "type": "address"
        }
      ],
      "stateMutability": "view",
      "type": "function"
    },
    {
      "inputs": [
        {
          "internalType": "uint256",
          "name": "",
          "type": "uint256"
        }
      ],
      "name": "candidates",
      "outputs": [
        {
          "internalType": "string",
          "name": "name",
          "type": "string"
        },
        {
          "internalType": "uint256",
          "name": "voteCount",
          "type": "uint256"
        }
      ],
      "stateMutability": "view",
      "type": "function"
    },
    {
      "inputs": [],
      "name": "electionActive",
      "outputs": [
        {
          "internalType": "bool",
          "name": "",
          "type": "bool"
        }
      ],
      "stateMutability": "view",
      "type": "function"
    },
    {
      "inputs": [],
      "name": "electionName",
      "outputs": [
        {
          "internalType": "string",
          "name": "",
          "type": "string"
        }
      ],
      "stateMutability": "view",
      "type": "function"
    },
    {
      "inputs": [
        {
          "internalType": "uint256",
          "name": "",
          "type": "uint256"
        }
      ],
      "name": "voterAddresses",
      "outputs": [
        {
          "internalType": "address",
          "name": "",
          "type": "address"
        }
      ],
      "stateMutability": "view",
      "type": "function"
    },
    {
      "inputs": [
        {
          "internalType": "address",
          "name": "",
          "type": "address"
        }
      ],
      "name": "voters",
      "outputs": [
        {
          "internalType": "bool",
          "name": "authorized",
          "type": "bool"
        },
        {
          "internalType": "bool",
          "name": "voted",
          "type": "bool"
        },
        {
          "internalType": "uint256",
          "name": "voteIndex",
          "type": "uint256"
        },
        {
          "internalType": "string",
          "name": "name",
          "type": "string"
        },
        {
          "internalType": "string",
          "name": "enrollment",
          "type": "string"
        },
        {
          "internalType": "bool",
          "name": "registered",
          "type": "bool"
        }
      ],
      "stateMutability": "view",
      "type": "function"
    },
    {
      "inputs": [
        {
          "internalType": "string",
          "name": "_name",
          "type": "string"
        }
      ],
      "name": "addCandidate",
      "outputs": [],
      "stateMutability": "nonpayable",
      "type": "function"
    },
    {
      "inputs": [
        {
          "internalType": "string",
          "name": "_name",
          "type": "string"
        },
        {
          "internalType": "string",
          "name": "_enrollment",
          "type": "string"
        }
      ],
      "name": "registerVoter",
      "outputs": [],
      "stateMutability": "nonpayable",
      "type": "function"
    },
    {
      "inputs": [
        {
          "internalType": "address",
          "name": "_voter",
          "type": "address"
        },
        {
          "internalType": "bool",
          "name": "_status",
          "type": "bool"
        }
      ],
      "name": "setVoterAuthorization",
      "outputs": [],
      "stateMutability": "nonpayable",
      "type": "function"
    },
    {
      "inputs": [],
      "name": "startElection",
      "outputs": [],
      "stateMutability": "nonpayable",
      "type": "function"
    },
    {
      "inputs": [
        {
          "internalType": "uint256",
          "name": "_candidateIndex",
          "type": "uint256"
        }
      ],
      "name": "vote",
      "outputs": [],
      "stateMutability": "nonpayable",
      "type": "function"
    },
    {
      "inputs": [],
      "name": "endElection",
      "outputs": [
        {
          "internalType": "string[]",
          "name": "winnerNames",
          "type": "string[]"
        },
        {
          "internalType": "uint256",
          "name": "winnerVotes",
          "type": "uint256"
        }
      ],
      "stateMutability": "nonpayable",
      "type": "function"
    },
    {
      "inputs": [
        {
          "internalType": "bool",
          "name": "_clearCandidates",
          "type": "bool"
        }
      ],
      "name": "resetElection",
      "outputs": [],
      "stateMutability": "nonpayable",
      "type": "function"
    },
    {
      "inputs": [],
      "name": "getCandidates",
      "outputs": [
        {
          "components": [
            {
              "internalType": "string",
              "name": "name",
              "type": "string"
            },
            {
              "internalType": "uint256",
              "name": "voteCount",
              "type": "uint256"
            }
          ],
          "internalType": "struct CRVoting.Candidate[]",
          "name": "",
          "type": "tuple[]"
        }
      ],
      "stateMutability": "view",
      "type": "function"
    },
    {
      "inputs": [],
      "name": "getVoterAddresses",
      "outputs": [
        {
          "internalType": "address[]",
          "name": "",
          "type": "address[]"
        }
      ],
      "stateMutability": "view",
      "type": "function"
    }
  ],
  "bytecode": "0x608060405234801561001057600080fd5b50604051611a79380380611a7983398101604081905261002f91610074565b600080546001600160a01b03191633179055600161004d82826101c9565b50506002805460ff19169055610287565b634e487b7160e01b600052604160045260246000fd5b60006020828403121561008657600080fd5b81516001600160401b0381111561009c57600080fd5b8201601f810184136100ad57600080fd5b80516001600160401b038111156100c6576100c661005e565b604051601f8201601f19908116603f011681016001600160401b03811182821017156100f4576100f461005e565b60405281815282820160200186101561010c57600080fd5b60005b8281101561012b5760208185018101518383018201520161010f565b50600091810160200191909152949350505050565b600181811c9082168061015457607f821691505b60208210810361017457634e487b7160e01b600052602260045260246000fd5b50919050565b601f8211156101c457806000526020600020601f840160051c810160208510156101a15750805b601f840160051c820191505b818110156101c157600081556001016101ad565b50505b505050565b81516001600160401b038111156101e2576101e261005e565b6101f6816101f08454610140565b8461017a565b6020601f82116001811461022a57600083156102125750848201515b600019600385901b1c1916600184901b1784556101c1565b600084815260208120601f198516915b8281101561025a578785015182556020948501946001909201910161023a565b50848210156102785786840151600019600387901b60f8161c191681555b50505050600190811b01905550565b6117e3806102966000396000f3fe608060405234801561001057600080fd5b50600436106100f55760003560e01c80635cf753a6116100975780638a4c8847116100665780638a4c8847146101ec578063a3ec138d146101ff578063dd0e237314610224578063f851a4401461024f57600080fd5b80635cf753a61461019f57806362d73eb8146101b25780637ed628bb146101ba57806385e8e7a7146101d757600080fd5b80633477ee2e116100d35780633477ee2e146101425780633544a43014610163578063462e91ec1461017657806359f784681461018957600080fd5b80630121b93f146100fa57806306a49fce1461010f5780630a16e30b1461012d575b600080fd5b61010d6101083660046111a8565b610262565b005b61011761044d565b6040516101249190611207565b60405180910390f35b610135610548565b6040516101249190611280565b6101556101503660046111a8565b6105aa565b6040516101249291906112cc565b61010d61017136600461131a565b610666565b61010d6101843660046113f2565b610756565b610191610852565b60405161012492919061142f565b61010d6101ad36600461149c565b610b78565b61010d610d3c565b6002546101c79060ff1681565b6040519015158152602001610124565b6101df610de3565b60405161012491906114be565b61010d6101fa3660046114d1565b610e71565b61021261020d36600461153a565b610f9a565b60405161012496959493929190611555565b6102376102323660046111a8565b6110e8565b6040516001600160a01b039091168152602001610124565b600054610237906001600160a01b031681565b60025460ff166102b25760405162461bcd60e51b8152602060048201526016602482015275456c656374696f6e206973206e6f742061637469766560501b60448201526064015b60405180910390fd5b3360009081526005602052604090205460ff166103115760405162461bcd60e51b815260206004820152601760248201527f486173206e6f74206265656e20617574686f72697a656400000000000000000060448201526064016102a9565b33600090815260056020526040902054610100900460ff16156103665760405162461bcd60e51b815260206004820152600d60248201526c105b1c9958591e481d9bdd1959609a1b60448201526064016102a9565b60035481106103b75760405162461bcd60e51b815260206004820152601760248201527f496e76616c69642063616e64696461746520696e64657800000000000000000060448201526064016102a9565b336000908152600560205260409020805461ff00191661010017815560010181905560038054829081106103ed576103ed6115a6565b60009182526020822060016002909202010180549161040b836115bc565b909155505060408051338152602081018390527fd0e6c39f2e086dc49f1524b47725526a56945cd1ff661f37976f1725a1e5698691015b60405180910390a150565b60606003805480602002602001604051908101604052809291908181526020016000905b8282101561053f57838290600052602060002090600202016040518060400160405290816000820180546104a4906115e3565b80601f01602080910402602001604051908101604052809291908181526020018280546104d0906115e3565b801561051d5780601f106104f25761010080835404028352916020019161051d565b820191906000526020600020905b81548152906001019060200180831161050057829003601f168201915b5050505050815260200160018201548152505081526020019060010190610471565b50505050905090565b606060048054806020026020016040519081016040528092919081815260200182805480156105a057602002820191906000526020600020905b81546001600160a01b03168152600190910190602001808311610582575b5050505050905090565b600381815481106105ba57600080fd5b90600052602060002090600202016000915090508060000180546105dd906115e3565b80601f0160208091040260200160405190810160405280929190818152602001828054610609906115e3565b80156106565780601f1061062b57610100808354040283529160200191610656565b820191906000526020600020905b81548152906001019060200180831161063957829003601f168201915b5050505050908060010154905082565b6000546001600160a01b031633146106905760405162461bcd60e51b81526004016102a99061161d565b6001600160a01b03821660009081526005602052604090206004015460ff166106f25760405162461bcd60e51b8152602060048201526014602482015273159bdd195c881b9bdd081c9959da5cdd195c995960621b60448201526064016102a9565b6001600160a01b038216600081815260056020908152604091829020805460ff19168515159081179091558251938452908301527fcd4fa3098d7daf4cf5a72af3d0e8e91afabf1068094b6232045ace18d03efa2991015b60405180910390a15050565b6000546001600160a01b031633146107805760405162461bcd60e51b81526004016102a99061161d565b60025460ff16156107ea5760405162461bcd60e51b815260206004820152602e60248201527f43616e6e6f74206164642063616e64696461746573207768696c6520656c656360448201526d74696f6e2069732061637469766560901b60648201526084016102a9565b60408051808201909152818152600060208201819052600380546001810182559152815160029091027fc2575a0e9e593c00f959f8c92f12db2869c3395a3b0502d05e2516446f71f85b0190819061084290826116ae565b5060208201518160010155505050565b60008054606091906001600160a01b031633146108815760405162461bcd60e51b81526004016102a99061161d565b60025460ff166108cc5760405162461bcd60e51b8152602060048201526016602482015275456c656374696f6e206973206e6f742061637469766560501b60448201526064016102a9565b6002805460ff191690556000805b6003548110156109405781600382815481106108f8576108f86115a6565b90600052602060002090600202016001015411156109385760038181548110610923576109236115a6565b90600052602060002090600202016001015491505b6001016108da565b508015610b08576000805b600354811015610996578260038281548110610969576109696115a6565b9060005260206000209060020201600101540361098e578161098a816115bc565b9250505b60010161094b565b508067ffffffffffffffff8111156109b0576109b061134d565b6040519080825280602002602001820160405280156109e357816020015b60608152602001906001900390816109ce5790505b5093506000805b600354811015610b00578360038281548110610a0857610a086115a6565b90600052602060002090600202016001015403610af85760038181548110610a3257610a326115a6565b90600052602060002090600202016000018054610a4e906115e3565b80601f0160208091040260200160405190810160405280929190818152602001828054610a7a906115e3565b8015610ac75780601f10610a9c57610100808354040283529160200191610ac7565b820191906000526020600020905b815481529060010190602001808311610aaa57829003601f168201915b5050505050868381518110610ade57610ade6115a6565b60200260200101819052508180610af4906115bc565b9250505b6001016109ea565b505050610b37565b6040805160008082526020820190925290610b33565b6060815260200190600190039081610b1e5790505b5092505b8091507f432de9abc1074de16197d420668fe7a93d57102f85bc9e670be2baea96c071f58383604051610b6b92919061142f565b60405180910390a1509091565b6000546001600160a01b03163314610ba25760405162461bcd60e51b81526004016102a99061161d565b60025460ff1615610c035760405162461bcd60e51b815260206004820152602560248201527f43616e6e6f74207265736574207768696c6520656c656374696f6e2069732061604482015264637469766560d81b60648201526084016102a9565b60005b600454811015610cb05760006005600060048481548110610c2957610c296115a6565b60009182526020808320909101546001600160a01b03168352820192909252604001812080549215156101000261ff00199093169290921790915560048054600591839185908110610c7d57610c7d6115a6565b60009182526020808320909101546001600160a01b03168352820192909252604001902060019081019190915501610c06565b508015610cc857610cc360036000611112565b610d0a565b60005b600354811015610d0857600060038281548110610cea57610cea6115a6565b60009182526020909120600160029092020181019190915501610ccb565b505b60405181151581527f9e7b541640a4f04a6f6da80591c89e48baad0919f2034d29f3e22d562dc4994290602001610442565b6000546001600160a01b03163314610d665760405162461bcd60e51b81526004016102a99061161d565b600354610dab5760405162461bcd60e51b8152602060048201526013602482015272139bc818d85b991a59185d195cc81859191959606a1b60448201526064016102a9565b6002805460ff191660011790556040517fc475c26aa25ed8e85a7faa790e5f63b5d7ee1025f12821f4c9bfddd36ab4d11290600090a1565b60018054610df0906115e3565b80601f0160208091040260200160405190810160405280929190818152602001828054610e1c906115e3565b8015610e695780601f10610e3e57610100808354040283529160200191610e69565b820191906000526020600020905b815481529060010190602001808311610e4c57829003601f168201915b505050505081565b3360009081526005602052604090206004015460ff1615610ec95760405162461bcd60e51b8152602060048201526012602482015271105b1c9958591e481c9959da5cdd195c995960721b60448201526064016102a9565b33600090815260056020526040902060048101805460ff19166001179055600201610ef483826116ae565b50336000908152600560205260409020600301610f1182826116ae565b5033600081815260056020526040808220805460ff191690556004805460018101825592527f8a35acfbc15ff81a39ae7d344fd709f28e8600b4aa8c65c6b64bfe7fe36bd19b90910180546001600160a01b03191683179055517f96ac7a421360a2bd773d747b2f64b40a916821c4906dbfdebf787c292e741f7d9161074a918590859061176d565b60056020526000908152604090208054600182015460028301805460ff8085169561010090950416939190610fce906115e3565b80601f0160208091040260200160405190810160405280929190818152602001828054610ffa906115e3565b80156110475780601f1061101c57610100808354040283529160200191611047565b820191906000526020600020905b81548152906001019060200180831161102a57829003601f168201915b50505050509080600301805461105c906115e3565b80601f0160208091040260200160405190810160405280929190818152602001828054611088906115e3565b80156110d55780601f106110aa576101008083540402835291602001916110d5565b820191906000526020600020905b8154815290600101906020018083116110b857829003601f168201915b5050506004909301549192505060ff1686565b600481815481106110f857600080fd5b6000918252602090912001546001600160a01b0316905081565b50805460008255600202906000526020600020908101906111339190611136565b50565b8082111561115a57600061114a828261115e565b5060006001820155600201611136565b5090565b50805461116a906115e3565b6000825580601f1061117a575050565b601f01602090049060005260206000209081019061113391905b8082111561115a5760008155600101611194565b6000602082840312156111ba57600080fd5b5035919050565b6000815180845260005b818110156111e7576020818501810151868301820152016111cb565b506000602082860101526020601f19601f83011685010191505092915050565b6000602082016020835280845180835260408501915060408160051b86010192506020860160005b8281101561127457603f19878603018452815180516040875261125560408801826111c1565b602092830151978301979097525093840193919091019060010161122f565b50929695505050505050565b602080825282518282018190526000918401906040840190835b818110156112c15783516001600160a01b031683526020938401939092019160010161129a565b509095945050505050565b6040815260006112df60408301856111c1565b90508260208301529392505050565b80356001600160a01b038116811461130557600080fd5b919050565b8035801515811461130557600080fd5b6000806040838503121561132d57600080fd5b611336836112ee565b91506113446020840161130a565b90509250929050565b634e487b7160e01b600052604160045260246000fd5b600082601f83011261137457600080fd5b813567ffffffffffffffff81111561138e5761138e61134d565b604051601f8201601f19908116603f0116810167ffffffffffffffff811182821017156113bd576113bd61134d565b6040528181528382016020018510156113d557600080fd5b816020850160208301376000918101602001919091529392505050565b60006020828403121561140457600080fd5b813567ffffffffffffffff81111561141b57600080fd5b61142784828501611363565b949350505050565b6000604082016040835280855180835260608501915060608160051b86010192506020870160005b8281101561148857605f198786030184526114738583516111c1565b94506020938401939190910190600101611457565b505050506020929092019290925292915050565b6000602082840312156114ae57600080fd5b6114b78261130a565b9392505050565b6020815260006114b760208301846111c1565b600080604083850312156114e457600080fd5b823567ffffffffffffffff8111156114fb57600080fd5b61150785828601611363565b925050602083013567ffffffffffffffff81111561152457600080fd5b61153085828601611363565b9150509250929050565b60006020828403121561154c57600080fd5b6114b7826112ee565b8615158152851515602082015284604082015260c06060820152600061157e60c08301866111c1565b828103608084015261159081866111c1565b91505082151560a0830152979650505050505050565b634e487b7160e01b600052603260045260246000fd5b6000600182016115dc57634e487b7160e01b600052601160045260246000fd5b5060010190565b600181811c908216806115f757607f821691505b60208210810361161757634e487b7160e01b600052602260045260246000fd5b50919050565b60208082526022908201527f4f6e6c792061646d696e2063616e20706572666f726d2074686973206163746960408201526137b760f11b606082015260800190565b601f8211156116a957806000526020600020601f840160051c810160208510156116865750805b601f840160051c820191505b818110156116a65760008155600101611692565b50505b505050565b815167ffffffffffffffff8111156116c8576116c861134d565b6116dc816116d684546115e3565b8461165f565b6020601f82116001811461171057600083156116f85750848201515b600019600385901b1c1916600184901b1784556116a6565b600084815260208120601f198516915b828110156117405787850151825560209485019460019092019101611720565b508482101561175e5786840151600019600387901b60f8161c191681555b50505050600190811b01905550565b6001600160a01b0384168152606060208201819052600090611791908301856111c1565b82810360408401526117a381856111c1565b969550505050505056fea2646970667358221220af8adbeeccb639227218622f9bc7990109f0da8d522cf2d3eb89b8f3370d7aee64736f6c634300081c0033",
  "immutableReferences": {},
  "source": "// SPDX-License-Identifier: MIT\r\npragma solidity ^0.8.28;\r\n\r\ncontract CRVoting {\r\n    struct Candidate {\r\n        string name;\r\n        uint256 voteCount;\r\n    }\r\n\r\n    struct Voter {\r\n        bool authorized;\r\n        bool voted;\r\n        uint256 voteIndex;\r\n        string name;\r\n        string enrollment;\r\n        bool registered;\r\n    }\r\n\r\n    address public admin;\r\n    string public electionName;\r\n    bool public electionActive;\r\n\r\n    Candidate[] public candidates;\r\n    address[] public voterAddresses;\r\n    mapping(address => Voter) public voters;\r\n\r\n    event ElectionStarted();\r\n    event ElectionEnded(string[] winnerNames, uint256 winnerVotes);\r\n    event VoterAuthorized(address voter, bool status);\r\n    event VoterRegistered(address voter, string name, string enrollment);\r\n    event VoteCasted(address voter, uint256 candidateIndex);\r\n    event ElectionReset(bool candidatesCleared);\r\n\r\n    modifier onlyAdmin() {\r\n        require(msg.sender == admin, \"Only admin can perform this action\");\r\n        _;\r\n    }\r\n\r\n    constructor(string memory _electionName) {\r\n        admin = msg.sender;\r\n        electionName = _electionName;\r\n        electionActive = false;\r\n    }\r\n\r\n    function addCandidate(string memory _name) public onlyAdmin {\r\n        require(!electionActive, \"Cannot add candidates while election is active\");\r\n        candidates.push(Candidate({\r\n            name: _name,\r\n            voteCount: 0\r\n        }));\r\n    }\r\n\r\n    function registerVoter(string memory _name, string memory _enrollment) public {\r\n        require(!voters[msg.sender].registered, \"Already registered\");\r\n        \r\n        voters[msg.sender].registered = true;\r\n        voters[msg.sender].name = _name;\r\n        voters[msg.sender].enrollment = _enrollment;\r\n        voters[msg.sender].authorized = false;\r\n        \r\n        voterAddresses.push(msg.sender);\r\n        \r\n        emit VoterRegistered(msg.sender, _name, _enrollment);\r\n    }\r\n\r\n    function setVoterAuthorization(address _voter, bool _status) public onlyAdmin {\r\n        require(voters[_voter].registered, \"Voter not registered\");\r\n        voters[_voter].authorized = _status;\r\n        emit VoterAuthorized(_voter, _status);\r\n    }\r\n\r\n    function startElection() public onlyAdmin {\r\n        require(candidates.length > 0, \"No candidates added\");\r\n        electionActive = true;\r\n        emit ElectionStarted();\r\n    }\r\n\r\n    function vote(uint256 _candidateIndex) public {\r\n        require(electionActive, \"Election is not active\");\r\n        require(voters[msg.sender].authorized, \"Has not been authorized\");\r\n        require(!voters[msg.sender].voted, \"Already voted\");\r\n        require(_candidateIndex < candidates.length, \"Invalid candidate index\");\r\n\r\n        voters[msg.sender].voted = true;\r\n        voters[msg.sender].voteIndex = _candidateIndex;\r\n        candidates[_candidateIndex].voteCount++;\r\n\r\n        emit VoteCasted(msg.sender, _candidateIndex);\r\n    }\r\n\r\n    function endElection() public onlyAdmin returns (string[] memory winnerNames, uint256 winnerVotes) {\r\n        require(electionActive, \"Election is not active\");\r\n        electionActive = false;\r\n\r\n        uint256 maxVotes = 0;\r\n        for (uint256 i = 0; i < candidates.length; i++) {\r\n            if (candidates[i].voteCount > maxVotes) {\r\n                maxVotes = candidates[i].voteCount;\r\n            }\r\n        }\r\n\r\n        if (maxVotes > 0) {\r\n            uint256 count = 0;\r\n            for (uint256 i = 0; i < candidates.length; i++) {\r\n                if (candidates[i].voteCount == maxVotes) {\r\n                    count++;\r\n                }\r\n            }\r\n\r\n            winnerNames = new string[](count);\r\n            uint256 index = 0;\r\n            for (uint256 i = 0; i < candidates.length; i++) {\r\n                if (candidates[i].voteCount == maxVotes) {\r\n                    winnerNames[index] = candidates[i].name;\r\n                    index++;\r\n                }\r\n            }\r\n        } else {\r\n            winnerNames = new string[](0);\r\n        }\r\n\r\n        winnerVotes = maxVotes;\r\n        emit ElectionEnded(winnerNames, winnerVotes);\r\n    }\r\n\r\n    function resetElection(bool _clearCandidates) public onlyAdmin {\r\n        require(!electionActive, \"Cannot reset while election is active\");\r\n        \r\n        // Reset all voters' voted status\r\n        for (uint256 i = 0; i < voterAddresses.length; i++) {\r\n            voters[voterAddresses[i]].voted = false;\r\n            voters[voterAddresses[i]].voteIndex = 0;\r\n        }\r\n\r\n        if (_clearCandidates) {\r\n            delete candidates;\r\n        } else {\r\n            // Just reset vote counts\r\n            for (uint256 i = 0; i < candidates.length; i++) {\r\n                candidates[i].voteCount = 0;\r\n            }\r\n        }\r\n\r\n        emit ElectionReset(_clearCandidates);\r\n    }\r\n\r\n    function getCandidates() public view returns (Candidate[] memory) {\r\n        return candidates;\r\n    }\r\n\r\n    function getVoterAddresses() public view returns (address[] memory) {\r\n        return voterAddresses;\r\n    }\r\n}\r\n",
  "sourcePath": "D:\\DDA_Lab\\contracts\\Voting.sol",
  "compiler": {
    "name": "solc",
    "version": "0.8.28+commit.7893614a.Emscripten.clang"
  },
  "schemaVersion": "3.4.16",
  "updatedAt": "2026-03-18T14:39:44.864Z",
  "devdoc": {
    "kind": "dev",
    "methods": {},
    "version": 1
  },
  "userdoc": {
    "kind": "user",
    "methods": {},
    "version": 1
  }
}